:020000040800F2
:1000000000280020650300084D0300084F03000886
:1000100051030008530300085503000800000000C6
:10002000000000000000000000000000570300086E
:1000300059030008000000005B0300085D0300088E
:10004000AD030008AD030008AD030008AD030008D0
:10005000AD030008AD030008AD030008AD030008C0
:10006000AD030008AD030008AD030008AD030008B0
:10007000AD030008AD030008AD030008AD030008A0
:10008000AD030008AD030008AD030008AD03000890
:10009000AD030008AD030008AD030008AD03000880
:1000A000AD030008AD030008AD030008AD03000870
:1000B000AD030008AD03000800000000AD03000818
:1000C000AD0300080000000000000000AD030008C0
:1000D00000000000AD030008AD03000800000000B0
:1000E000AD030008AD030008AD03000800000000E8
:1000F0000000000000000000000000000000000000
:0C01000000000000000000005FF808F1A3
:10010C0010B5054C237833B9044B13B10448AFF345
:10011C0000800123237010BD0C00002000000000A3
:10012C008011000808B5034B1BB103490348AFF31A
:10013C00008008BD000000001000002080110008A5
:10014C0010B590B02022002107A801F00BF8142262
:10015C00002101A801F006F8102301220224CDE9A8
:10016C000A234FF4601306A806940D940F9300F025
:10017C008FFA08B172B6FEE70F23CDE901344FF4C4
:10018C0080630390CDE90430214601A800F056FCB1
:10019C0008B172B6FEE710B010BD0000102600B515
:1001AC0097B000F023F9FFF7CBFF384B00219A6989
:1001BC0003A842F004029A619B69324603F00403DF
:1001CC0000930025009B00F0CDFF1C2229460DEB6F
:1001DC000200CDE9015500F0C5FF202229460EA8EA
:1001EC0000F0C0FF0A232A4C2A48C4E90256C4E98D
:1001FC0000032046C4E90455A56100F063FD08B175
:10020C0072B6FEE74FF48053204603A9039300F027
:10021C0042FE08B172B6FEE7204600F07FFD08B141
:10022C0072B6FEE7CDE9010001A9204600F026FFD9
:10023C00024608B172B6FEE760210823CDE9090039
:10024C00CDE90713CDE90B000D9007A9204600F06E
:10025C00BDFD08B172B6FEE74FF40053CDE90E00B8
:10026C00CDE91000129015900EA92046139300F0C2
:10027C002FFF054608B172B6FEE7204600F038F8AD
:10028C002946204600F0F8FEFEE700BF00100240B1
:10029C0028000020002C01400A4B82B09A6942F0E1
:1002AC0001029A619A6902F001020092009ADA69DD
:1002BC0042F08052DA61DB6903F080530193019BB9
:1002CC0002B07047001002400268084B82B09A429C
:1002DC000AD103F564439A6942F400629A619B69FE
:1002EC0003F400630193019B02B07047002C0140A2
:1002FC0010B5044686B01022002102A800F032FF8F
:10030C0022680D4B9A4214D103F564439A690B4849
:10031C0042F004029A619B694FF4807203F004036B
:10032C000193019B022302A9CDE90223059300F05E
:10033C00D9F806B010BD00BF002C014000080140E8
:10034C00FEE7FEE7FEE7FEE7FEE770477047704703
:10035C0000F05EB8704700000C480D490D4A0023B0
:10036C0002E0D458C4500433C4188C42F9D30A4A5E
:10037C000A4C002301E013600432A242FBD3FFF7C6
:10038C00E9FF00F0CBFEFFF709FF704700000020EB
:10039C000C000020C41100080C0000207400002088
:1003AC00FEE7000038B50E4B054618784FF47A730B
:1003BC00B3FBF0F30B4A1068B0FBF3F000F07EF8DF
:1003CC00044658B90F2D09D8024629464FF0FF3084
:1003DC0000F042F82046044B1D6038BD0120FCE7BC
:1003EC00040000200000002008000020074A08B587
:1003FC001368032043F01003136000F01BF80F2068
:10040C00FFF7D0FFFFF748FF002008BD0020024097
:10041C00034A044B11681B780B441360704700BFF0
:10042C007000002004000020014B1868704700BFCA
:10043C007000002007490302CA6803F4E06322F449
:10044C00E0621204120C134343F0BF6343F4003315
:10045C00CB60704700ED00E0164B30B5DC68C4F3A0
:10046C000224C4F10703251D042B28BF0423062DE9
:10047C004FF0FF3598BF002405FA03F388BF033C07
:10048C0021EA0303A34005FA04F422EA040200283B
:10049C0043EA0203ACBF00F16040074A4FEA031382
:1004AC00DBB2ABBF00F5614000F00F0080F8003309
:1004BC00135430BD00ED00E014ED00E00138B0F154
:1004CC00807F0BD24FF0E023F021054A586182F86F
:1004DC0023100020072298611A6170470120704791
:1004EC0000ED00E02DE9F74F00221646614F624BFC
:1004FC00DFF888C1DFF888E10D6835FA06F402D11F
:10050C0003B0BDE8F08F4FF0010808FA06F805EAD1
:10051C00080438EA050577D14D68032D07D8013D4D
:10052C00022D00F28280DFE805F092979D00122DDB
:10053C0000F095806AD8112D00F08B80FF2C98BFAD
:10054C0082464FF00F0988BF00F1040A4FEA860576
:10055C00DAF8008088BF203D09FA05FB28EA0B0871
:10056C0002FA05F548EA0505CAF80050D1F804A0CE
:10057C001AF0805F48D0BD6926F0030845F00105EC
:10058C00BD61BD6908F1804805F00105019508F5CC
:10059C00803806F0030B019D4FEA8B0BD8F80850FE
:1005AC0009FA0BF925EA0909364DA8425ED005F582
:1005BC008065A8425CD005F58065A8420CBF022579
:1005CC00032505FA0BF545EA0905C8F808501D681E
:1005DC001AF4803F14BF2543A5431D605D681AF4CF
:1005EC00003F14BF2543A5435D609D681AF4801F2E
:1005FC0014BF2543A5439D60DD681AF4001F14BF8A
:10060C002C4325EA0404DC60013675E7DFF87890AA
:10061C004D450AD015D8754507D0A9F580394D45FB
:10062C0003D0A9F580194D4588D18A68E2B1012A19
:10063C0008BFC0F810804FF0080218BFC0F8148033
:10064C007CE7DFF848904D45EFD06545ECE7CA688C
:10065C0074E7CA68043271E7CA6808326EE7CA6880
:10066C000C326BE7002269E7042267E70025A8E754
:10067C000125A6E7001002400004014000003210E2
:10068C000000121000080140000022100000311080
:10069C002DE9F341054638B30368DB0710D42B680A
:1006AC009F075ED42B68190700F195802B685A07B9
:1006BC0000F1C180E869002840F02C81002029E07D
:1006CC00904C636803F00C03042B07D0636803F0B1
:1006DC000C03082B0AD16368DE0307D523689C033F
:1006EC00DDD56B68002BDAD1012013E06B68B3F514
:1006FC00803F12D1236843F480332360FFF794FECC
:10070C00064623689803CAD4FFF78EFE801B642824
:10071C00F7D9032002B0BDE8F0819BB9236823F41C
:10072C0080332360236823F480232360FFF77CFE4F
:10073C00064623689903B2D5FFF776FE801B642822
:10074C00F7D9E6E7B3F5A02F236803D143F4802350
:10075C002360CFE723F480332360236823F48023C2
:10076C00CBE7684C636813F00C0F07D0636803F099
:10077C000C03082B10D16368DA030DD423689B0794
:10078C0002D52B69012BAFD123686A6923F0F803DA
:10079C0043EAC203236085E72A695B4B6AB10122F5
:1007AC001A60FFF741FE064623689F07ECD4FFF75B
:1007BC003BFE801B0228F7D9ABE71A60FFF734FE2B
:1007CC000646236898077FF56DAFFFF72DFE801B5B
:1007DC000228F6D99DE7AA694A4E4B4BE2B1012299
:1007EC00C3F88024FFF720FE0446736A9B070DD5DF
:1007FC004FF4FA52454B1B68B3FBF2F3019300BF65
:10080C00019B5A1E0192002BF9D14FE7FFF70CFE0A
:10081C00001B0228E9D97CE7C3F88024FFF704FE0B
:10082C000446736A9F077FF541AFFFF7FDFD001B80
:10083C000228F6D96DE7334CE369D80024D401279C
:10084C00E36943F08053E361E36903F08053009361
:10085C00009B2F4E3368D90518D5EB68012B26D198
:10086C00236A43F001032362FFF7DEFD41F288386F
:10087C000646236A9B073FD5002F3FF41BAFE36965
:10088C0023F08053E36115E70027E2E7336843F474
:10089C0080733360FFF7C8FD80463368DA05DCD41B
:1008AC00FFF7C2FDA0EB08006428F6D931E7ABB91D
:1008BC00236A41F2883823F001032362236A23F070
:1008CC0004032362FFF7B0FD0646236A9807D3D5CD
:1008DC00FFF7AAFD801B4045F7D91AE7052B236AC1
:1008EC0003D143F004032362BAE723F0010323622C
:1008FC00236A23F00403B6E7FFF796FD801B4045FF
:10090C00B7D906E700100240000042420000002068
:10091C00007000402A4C636803F00C03082B3ED097
:10092C000022284B02281A662CD1FFF77DFD0646C3
:10093C002368990120D42B6AB3F5803F05D16268F6
:10094C00A96822F400320A436260696A62680B4348
:10095C0022F474121343012263601A4B1A66FFF7D8
:10096C0063FD054623689A013FF5A8AEFFF75CFDD1
:10097C00401B0228F6D9CCE6FFF756FD801B022857
:10098C00D6D9C6E6FFF750FD054623689B017FF5D7
:10099C0095AEFFF749FD401B0228F6D9B9E60128B0
:1009AC003FF4B8AE63682A6A03F4803191427FF455
:1009BC009BAE6A6A03F4701393423FF47FAE93E6E6
:1009CC00001002400000424230B5184B87B002AC18
:1009DC0003F11005224618685968083303C2AB426C
:1009EC001446F7D140F201231149ADF804304B689D
:1009FC0003F00C02082A17D1C3F3834218326A445D
:100A0C00DB0312F8100C0CD54B680A4AC3F34043B5
:100A1C00504318336B4413F8143CB0FBF3F007B09D
:100A2C0030BD054B5843FAE70248F8E7A811000817
:100A3C000010024000127A0000093D002DE9F0413F
:100A4C000D46044610B90120BDE8F081444A1368F4
:100A5C0003F007038B4228D321688E0730D4CA07D2
:100A6C0043D43F4A136803F00703AB4265D82268AE
:100A7C003C4D12F0040F6CD1130706D56B6822693C
:100A8C0023F4605343EAC2036B60FFF79DFF6B686E
:100A9C00354AC3F30313D35CD840344B1860344B42
:100AAC001868FFF77FFC0020CEE7136823F00703DC
:100ABC000B431360136803F007038B42C3D1CBE7DE
:100ACC00284B11F0040F1EBF5A6842F4E0625A60C2
:100ADC00080742BF5A6842F460525A605A68A068CC
:100AEC0022F0F00202435A60B9E762681D4E012AF7
:100AFC0033681AD113F4003FA5D0736841F28838DB
:100B0C0023F0030313437360FFF78EFC07467368EF
:100B1C00626803F00C03B3EB820FA2D0FFF784FCE6
:100B2C00C01B4045F3D903208EE7022A02D113F0F3
:100B3C00007FE1E713F0020FDEE7136823F00703F1
:100B4C002B431360136803F00703AB427FF47BAFB6
:100B5C008DE76B68E16823F4E0630B436B608BE714
:100B6C0000200240001002409811000800000020F4
:100B7C0008000020036A70B523F001030362036AC6
:100B8C00446882690D6822F073022A438D6823F051
:100B9C0002032B430A4DA8420BD1CD6823F0080366
:100BAC002B4324F44074D1E90556354323F0040358
:100BBC002C43446082614A684263036270BD00BF8B
:100BCC00002C0140036A70B523F480730362036A3E
:100BDC004468C2690D6822F073022A438D6823F4BD
:100BEC00007343EA05230B4DA8420DD1CD6823F4C5
:100BFC00006343EA052324F44054D1E905563543F8
:100C0C0023F4806344EA05144460C2614A68C263F9
:100C1C00036270BD002C0140036A30B523F480538D
:100C2C000362036A4468C2690D6822F4E64242EA30
:100C3C0005228D6823F4005343EA0533064DA84280
:100C4C0002BF4D6924F4804444EA85144460C261B7
:100C5C004A680264036230BD002C014070470000FA
:100C6C00164A10B59042036805D0B0F1804F02D0FF
:100C7C00134CA04210D14C6823F07003904243EA0D
:100C8C00040305D0B0F1804F02D00D4A904203D13D
:100C9C00CA6823F4407313434A6923F08003134357
:100CAC0003608B68C3620B688362044B984204BF79
:100CBC000B6903630123436110BD00BF002C01408D
:100CCC000004004010B5044630B390F83D3003F0FA
:100CDC00FF021BB980F83C20FFF7F6FA02232068CC
:100CEC0084F83D30211DFFF7BBFF0123002084F861
:100CFC00463084F83E3084F83F3084F8403084F835
:100D0C00413084F8423084F8433084F8443084F81D
:100D1C00453084F83D3010BD0120FCE710B5044689
:100D2C0030B390F83D3003F0FF021BB980F83C2043
:100D3C00FFF794FF0223206884F83D30211DFFF754
:100D4C008FFF0123002084F8463084F83E3084F86D
:100D5C003F3084F8403084F8413084F8423084F8D5
:100D6C00433084F8443084F8453084F83D3010BD6D
:100D7C000120FCE7036A70B523F010030362036AD9
:100D8C00446882690D6822F4E64242EA05228D68C5
:100D9C0023F0200343EA05130B4DA8420DD1CD6877
:100DAC0023F0800343EA051324F44064D1E905568B
:100DBC00354323F0400344EA8504446082614A6869
:100DCC008263036270BD00BF002C014038B590F8FF
:100DDC003C300446012B52D00123082A80F83C30C9
:100DEC003CD006D8C2B1042A27D0002084F83C009D
:100DFC0038BD0C2AF9D10068FFF70EFF236809698A
:100E0C00DA6942F40062DA61DA6922F48062DA614A
:100E1C00DA6942EA012230E00068FFF7ABFE236892
:100E2C0009699A6942F008029A619A6922F00402EF
:100E3C009A619A690A439A61D7E70068FFF79AFFAB
:100E4C00236809699A6942F400629A619A6922F4EA
:100E5C0080629A619A6942EA0122ECE70068FFF726
:100E6C00B1FE23680969DA6942F00802DA61DA69CD
:100E7C0022F00402DA61DA690A43DA61B5E702208A
:100E8C00B6E710B584680A4324F47F4442EA03228F
:100E9C002243826010BD70B590F83C300446012BA3
:100EAC004FF0020027D0012384F83D00206884F81D
:100EBC003C30836823F47F4323F0770383600B6813
:100ECC00602B4DD032D8402B62D015D8202B03D0BC
:100EDC0009D833F0100208D1826822F07002134353
:100EEC0043F0070320E0302BF6D00123002084F8D8
:100EFC003D3084F83C0070BD502BF6D14A68CE686A
:100F0C00016A056A21F00A0125F001050562836971
:100F1C000A4323F0F00343EA0613836102628368F9
:100F2C0023F0700343F057038360DEE7702B0CD083
:100F3C00B3F5005FD9D1CB68D1E90121FFF7A1FF4F
:100F4C002268936843F4804308E0CB68D1E901211F
:100F5C00FFF797FF2268936843F077039360C4E729
:100F6C004D68CE68016A21F0100101628269036A42
:100F7C0022F4704223F0A00343EA051342EA06323E
:100F8C0082610362836823F0700343F06703CBE74D
:100F9C004A68CE68016A056A21F00A0125F001054C
:100FAC00056283690A4323F0F00343EA0613836165
:100FBC000262836823F0700343F04703B4E710B573
:100FCC000124036A01F01F018C4023EA040303622D
:100FDC00036A8A401A43026210BD000010B5044631
:100FEC0029B990F83E30012B21D0012010BD0429E5
:100FFC0007D190F83F30012BF7D1022384F83F3012
:10100C0018E0082907D190F84030012BEDD10223CC
:10101C0084F840300EE090F84130012BE5D10429E2
:10102C00EBD00829F3D0022380F8413002E00223F0
:10103C0080F83E3001222068FFF7C1FF23680C4A7C
:10104C0093420AD15A6C42F400425A649A6802F0F4
:10105C000702062A07D10020C8E7B3F1804FF5D06C
:10106C00044A9342F2D01A6842F001021A60F2E785
:10107C00002C014000040040FFF7B0BF30B590F8E1
:10108C003C200346012A4FF002001ED01A6883F858
:10109C003D0054680D6824F070042C439068546033
:1010AC000A4CA24206D0B2F1804F03D0A4F594347E
:1010BC00A24204D1496820F08000014391600122D2
:1010CC00002083F83D2083F83C0030BD002C01400B
:1010DC0090F83C30012B1FD0CB688A6823F4407306
:1010EC0013434A6823F4806313430A6823F40063B0
:1010FC0013430A6923F4805313434A6923F40053BE
:10110C001343CA6923F480431343026853640023D6
:10111C0080F83C30184670470220704770B50026A6
:10112C000C4D0D4C641BA410A64209D100F022F802
:10113C0000260A4D0A4C641BA410A64205D170BDB2
:10114C0055F8043B98470136EEE755F8043B9847B1
:10115C000136F2E7BC110008BC110008BC110008F4
:10116C00C011000803460244934200D1704703F8B3
:10117C00011BF9E7F8B500BFF8BC08BC9E467047E8
:0C118C00F8B500BFF8BC08BC9E467047D8
:10119800000000000000000001020304060708091F
:1011A80002030405060708090A0B0C0D0E0F1010A0
:0411B8000000000033
:0411BC0031010008F5
:0411C0000D01000815
:0C11C4000024F4000100000010000000F6
:040000050800036587
:00000001FF
